{"abi":[{"type":"constructor","inputs":[],"stateMutability":"nonpayable"},{"type":"function","name":"ADMIN_ROLE","inputs":[],"outputs":[{"name":"","type":"bytes32","internalType":"bytes32"}],"stateMutability":"view"},{"type":"function","name":"ARTIST_ROLE","inputs":[],"outputs":[{"name":"","type":"bytes32","internalType":"bytes32"}],"stateMutability":"view"},{"type":"function","name":"DEFAULT_ADMIN_ROLE","inputs":[],"outputs":[{"name":"","type":"bytes32","internalType":"bytes32"}],"stateMutability":"view"},{"type":"function","name":"PLATFORM_FEE_BASIS_POINTS","inputs":[],"outputs":[{"name":"","type":"uint256","internalType":"uint256"}],"stateMutability":"view"},{"type":"function","name":"addTicketType","inputs":[{"name":"_eventId","type":"uint256","internalType":"uint256"},{"name":"_category","type":"string","internalType":"string"},{"name":"_price","type":"uint256","internalType":"uint256"},{"name":"_maxSupply","type":"uint256","internalType":"uint256"},{"name":"_ipfsHash","type":"string","internalType":"string"}],"outputs":[{"name":"","type":"uint256","internalType":"uint256"}],"stateMutability":"nonpayable"},{"type":"function","name":"balanceOf","inputs":[{"name":"account","type":"address","internalType":"address"},{"name":"id","type":"uint256","internalType":"uint256"}],"outputs":[{"name":"","type":"uint256","internalType":"uint256"}],"stateMutability":"view"},{"type":"function","name":"balanceOfBatch","inputs":[{"name":"accounts","type":"address[]","internalType":"address[]"},{"name":"ids","type":"uint256[]","internalType":"uint256[]"}],"outputs":[{"name":"","type":"uint256[]","internalType":"uint256[]"}],"stateMutability":"view"},{"type":"function","name":"createEvent","inputs":[{"name":"_name","type":"string","internalType":"string"}],"outputs":[{"name":"","type":"uint256","internalType":"uint256"}],"stateMutability":"nonpayable"},{"type":"function","name":"eventTicketTypes","inputs":[{"name":"","type":"uint256","internalType":"uint256"},{"name":"","type":"uint256","internalType":"uint256"}],"outputs":[{"name":"ticketTypeId","type":"uint256","internalType":"uint256"},{"name":"eventId","type":"uint256","internalType":"uint256"},{"name":"category","type":"string","internalType":"string"},{"name":"price","type":"uint256","internalType":"uint256"},{"name":"maxSupply","type":"uint256","internalType":"uint256"},{"name":"totalMinted","type":"uint256","internalType":"uint256"},{"name":"ipfsHash","type":"string","internalType":"string"}],"stateMutability":"view"},{"type":"function","name":"events","inputs":[{"name":"","type":"uint256","internalType":"uint256"}],"outputs":[{"name":"eventId","type":"uint256","internalType":"uint256"},{"name":"artist","type":"address","internalType":"address"},{"name":"name","type":"string","internalType":"string"},{"name":"active","type":"bool","internalType":"bool"}],"stateMutability":"view"},{"type":"function","name":"getEvent","inputs":[{"name":"_eventId","type":"uint256","internalType":"uint256"}],"outputs":[{"name":"","type":"tuple","internalType":"struct SimpleTicketFactory.Event","components":[{"name":"eventId","type":"uint256","internalType":"uint256"},{"name":"artist","type":"address","internalType":"address"},{"name":"name","type":"string","internalType":"string"},{"name":"ticketTypeIds","type":"uint256[]","internalType":"uint256[]"},{"name":"active","type":"bool","internalType":"bool"}]}],"stateMutability":"view"},{"type":"function","name":"getRoleAdmin","inputs":[{"name":"role","type":"bytes32","internalType":"bytes32"}],"outputs":[{"name":"","type":"bytes32","internalType":"bytes32"}],"stateMutability":"view"},{"type":"function","name":"getTicketType","inputs":[{"name":"_ticketTypeId","type":"uint256","internalType":"uint256"}],"outputs":[{"name":"","type":"tuple","internalType":"struct SimpleTicketFactory.TicketType","components":[{"name":"ticketTypeId","type":"uint256","internalType":"uint256"},{"name":"eventId","type":"uint256","internalType":"uint256"},{"name":"category","type":"string","internalType":"string"},{"name":"price","type":"uint256","internalType":"uint256"},{"name":"maxSupply","type":"uint256","internalType":"uint256"},{"name":"totalMinted","type":"uint256","internalType":"uint256"},{"name":"ipfsHash","type":"string","internalType":"string"}]}],"stateMutability":"view"},{"type":"function","name":"getUriForEventTicket","inputs":[{"name":"_eventId","type":"uint256","internalType":"uint256"},{"name":"_ticketTypeIndexInEvent","type":"uint256","internalType":"uint256"}],"outputs":[{"name":"","type":"string","internalType":"string"}],"stateMutability":"view"},{"type":"function","name":"grantArtistRole","inputs":[{"name":"artist","type":"address","internalType":"address"}],"outputs":[],"stateMutability":"nonpayable"},{"type":"function","name":"grantRole","inputs":[{"name":"role","type":"bytes32","internalType":"bytes32"},{"name":"account","type":"address","internalType":"address"}],"outputs":[],"stateMutability":"nonpayable"},{"type":"function","name":"hasPurchasedTicket","inputs":[{"name":"","type":"address","internalType":"address"},{"name":"","type":"uint256","internalType":"uint256"}],"outputs":[{"name":"","type":"bool","internalType":"bool"}],"stateMutability":"view"},{"type":"function","name":"hasRole","inputs":[{"name":"role","type":"bytes32","internalType":"bytes32"},{"name":"account","type":"address","internalType":"address"}],"outputs":[{"name":"","type":"bool","internalType":"bool"}],"stateMutability":"view"},{"type":"function","name":"isApprovedForAll","inputs":[{"name":"account","type":"address","internalType":"address"},{"name":"operator","type":"address","internalType":"address"}],"outputs":[{"name":"","type":"bool","internalType":"bool"}],"stateMutability":"view"},{"type":"function","name":"nullifierHashes","inputs":[{"name":"","type":"uint256","internalType":"uint256"}],"outputs":[{"name":"","type":"bool","internalType":"bool"}],"stateMutability":"view"},{"type":"function","name":"platformFeeCollector","inputs":[],"outputs":[{"name":"","type":"address","internalType":"address"}],"stateMutability":"view"},{"type":"function","name":"purchaseTicket","inputs":[{"name":"_eventId","type":"uint256","internalType":"uint256"},{"name":"_ticketTypeIndexInEvent","type":"uint256","internalType":"uint256"},{"name":"_quantity","type":"uint256","internalType":"uint256"}],"outputs":[],"stateMutability":"payable"},{"type":"function","name":"renounceRole","inputs":[{"name":"role","type":"bytes32","internalType":"bytes32"},{"name":"callerConfirmation","type":"address","internalType":"address"}],"outputs":[],"stateMutability":"nonpayable"},{"type":"function","name":"revokeArtistRole","inputs":[{"name":"artist","type":"address","internalType":"address"}],"outputs":[],"stateMutability":"nonpayable"},{"type":"function","name":"revokeRole","inputs":[{"name":"role","type":"bytes32","internalType":"bytes32"},{"name":"account","type":"address","internalType":"address"}],"outputs":[],"stateMutability":"nonpayable"},{"type":"function","name":"safeBatchTransferFrom","inputs":[{"name":"from","type":"address","internalType":"address"},{"name":"to","type":"address","internalType":"address"},{"name":"ids","type":"uint256[]","internalType":"uint256[]"},{"name":"amounts","type":"uint256[]","internalType":"uint256[]"},{"name":"data","type":"bytes","internalType":"bytes"}],"outputs":[],"stateMutability":"nonpayable"},{"type":"function","name":"safeTransferFrom","inputs":[{"name":"from","type":"address","internalType":"address"},{"name":"to","type":"address","internalType":"address"},{"name":"id","type":"uint256","internalType":"uint256"},{"name":"amount","type":"uint256","internalType":"uint256"},{"name":"data","type":"bytes","internalType":"bytes"}],"outputs":[],"stateMutability":"nonpayable"},{"type":"function","name":"setApprovalForAll","inputs":[{"name":"operator","type":"address","internalType":"address"},{"name":"approved","type":"bool","internalType":"bool"}],"outputs":[],"stateMutability":"nonpayable"},{"type":"function","name":"setPlatformFeeCollector","inputs":[{"name":"_newFeeCollector","type":"address","internalType":"address"}],"outputs":[],"stateMutability":"nonpayable"},{"type":"function","name":"supportsInterface","inputs":[{"name":"interfaceId","type":"bytes4","internalType":"bytes4"}],"outputs":[{"name":"","type":"bool","internalType":"bool"}],"stateMutability":"view"},{"type":"function","name":"ticketTypes","inputs":[{"name":"","type":"uint256","internalType":"uint256"}],"outputs":[{"name":"ticketTypeId","type":"uint256","internalType":"uint256"},{"name":"eventId","type":"uint256","internalType":"uint256"},{"name":"category","type":"string","internalType":"string"},{"name":"price","type":"uint256","internalType":"uint256"},{"name":"maxSupply","type":"uint256","internalType":"uint256"},{"name":"totalMinted","type":"uint256","internalType":"uint256"},{"name":"ipfsHash","type":"string","internalType":"string"}],"stateMutability":"view"},{"type":"function","name":"toggleEventStatus","inputs":[{"name":"_eventId","type":"uint256","internalType":"uint256"}],"outputs":[],"stateMutability":"nonpayable"},{"type":"function","name":"uri","inputs":[{"name":"","type":"uint256","internalType":"uint256"}],"outputs":[{"name":"","type":"string","internalType":"string"}],"stateMutability":"view"},{"type":"function","name":"worldIdGroupId","inputs":[],"outputs":[{"name":"","type":"uint256","internalType":"uint256"}],"stateMutability":"view"},{"type":"event","name":"ApprovalForAll","inputs":[{"name":"account","type":"address","indexed":true,"internalType":"address"},{"name":"operator","type":"address","indexed":true,"internalType":"address"},{"name":"approved","type":"bool","indexed":false,"internalType":"bool"}],"anonymous":false},{"type":"event","name":"EventCreated","inputs":[{"name":"eventId","type":"uint256","indexed":true,"internalType":"uint256"},{"name":"artist","type":"address","indexed":true,"internalType":"address"},{"name":"name","type":"string","indexed":false,"internalType":"string"}],"anonymous":false},{"type":"event","name":"PlatformFeeCollectorChanged","inputs":[{"name":"newFeeCollector","type":"address","indexed":true,"internalType":"address"}],"anonymous":false},{"type":"event","name":"RoleAdminChanged","inputs":[{"name":"role","type":"bytes32","indexed":true,"internalType":"bytes32"},{"name":"previousAdminRole","type":"bytes32","indexed":true,"internalType":"bytes32"},{"name":"newAdminRole","type":"bytes32","indexed":true,"internalType":"bytes32"}],"anonymous":false},{"type":"event","name":"RoleGranted","inputs":[{"name":"role","type":"bytes32","indexed":true,"internalType":"bytes32"},{"name":"account","type":"address","indexed":true,"internalType":"address"},{"name":"sender","type":"address","indexed":true,"internalType":"address"}],"anonymous":false},{"type":"event","name":"RoleRevoked","inputs":[{"name":"role","type":"bytes32","indexed":true,"internalType":"bytes32"},{"name":"account","type":"address","indexed":true,"internalType":"address"},{"name":"sender","type":"address","indexed":true,"internalType":"address"}],"anonymous":false},{"type":"event","name":"TicketPurchased","inputs":[{"name":"ticketTypeId","type":"uint256","indexed":true,"internalType":"uint256"},{"name":"buyer","type":"address","indexed":true,"internalType":"address"},{"name":"quantity","type":"uint256","indexed":false,"internalType":"uint256"},{"name":"totalPrice","type":"uint256","indexed":false,"internalType":"uint256"}],"anonymous":false},{"type":"event","name":"TicketTypeCreated","inputs":[{"name":"ticketTypeId","type":"uint256","indexed":true,"internalType":"uint256"},{"name":"eventId","type":"uint256","indexed":true,"internalType":"uint256"},{"name":"category","type":"string","indexed":false,"internalType":"string"},{"name":"price","type":"uint256","indexed":false,"internalType":"uint256"},{"name":"maxSupply","type":"uint256","indexed":false,"internalType":"uint256"}],"anonymous":false},{"type":"event","name":"TransferBatch","inputs":[{"name":"operator","type":"address","indexed":true,"internalType":"address"},{"name":"from","type":"address","indexed":true,"internalType":"address"},{"name":"to","type":"address","indexed":true,"internalType":"address"},{"name":"ids","type":"uint256[]","indexed":false,"internalType":"uint256[]"},{"name":"values","type":"uint256[]","indexed":false,"internalType":"uint256[]"}],"anonymous":false},{"type":"event","name":"TransferSingle","inputs":[{"name":"operator","type":"address","indexed":true,"internalType":"address"},{"name":"from","type":"address","indexed":true,"internalType":"address"},{"name":"to","type":"address","indexed":true,"internalType":"address"},{"name":"id","type":"uint256","indexed":false,"internalType":"uint256"},{"name":"value","type":"uint256","indexed":false,"internalType":"uint256"}],"anonymous":false},{"type":"event","name":"URI","inputs":[{"name":"value","type":"string","indexed":false,"internalType":"string"},{"name":"id","type":"uint256","indexed":true,"internalType":"uint256"}],"anonymous":false},{"type":"error","name":"AccessControlBadConfirmation","inputs":[]},{"type":"error","name":"AccessControlUnauthorizedAccount","inputs":[{"name":"account","type":"address","internalType":"address"},{"name":"neededRole","type":"bytes32","internalType":"bytes32"}]},{"type":"error","name":"ERC1155InsufficientBalance","inputs":[{"name":"sender","type":"address","internalType":"address"},{"name":"balance","type":"uint256","internalType":"uint256"},{"name":"needed","type":"uint256","internalType":"uint256"},{"name":"tokenId","type":"uint256","internalType":"uint256"}]},{"type":"error","name":"ERC1155InvalidApprover","inputs":[{"name":"approver","type":"address","internalType":"address"}]},{"type":"error","name":"ERC1155InvalidArrayLength","inputs":[{"name":"idsLength","type":"uint256","internalType":"uint256"},{"name":"valuesLength","type":"uint256","internalType":"uint256"}]},{"type":"error","name":"ERC1155InvalidOperator","inputs":[{"name":"operator","type":"address","internalType":"address"}]},{"type":"error","name":"ERC1155InvalidReceiver","inputs":[{"name":"receiver","type":"address","internalType":"address"}]},{"type":"error","name":"ERC1155InvalidSender","inputs":[{"name":"sender","type":"address","internalType":"address"}]},{"type":"error","name":"ERC1155MissingApprovalForAll","inputs":[{"name":"operator","type":"address","internalType":"address"},{"name":"owner","type":"address","internalType":"address"}]}],"bytecode":{"object":"0x60a06040525f6080908152505f6006555f60075534801561001e575f5ffd5b5060405180602001604052805f81525061003d816100b460201b60201c565b5061006e7fa49807205ce4d355092ef5a8a18f56e8913cf4a201fbe287825b095693c21775336100c760201b60201c565b503360055f6101000a81548173ffffffffffffffffffffffffffffffffffffffff021916908373ffffffffffffffffffffffffffffffffffffffff160217905550610534565b80600290816100c39190610465565b5050565b5f6100d883836101bd60201b60201c565b6101b357600160035f8581526020019081526020015f205f015f8473ffffffffffffffffffffffffffffffffffffffff1673ffffffffffffffffffffffffffffffffffffffff1681526020019081526020015f205f6101000a81548160ff02191690831515021790555061015061022160201b60201c565b73ffffffffffffffffffffffffffffffffffffffff168273ffffffffffffffffffffffffffffffffffffffff16847f2f8788117e7eff1d82e926ec794901d17c78024a50270940304540a733656f0d60405160405180910390a4600190506101b7565b5f90505b92915050565b5f60035f8481526020019081526020015f205f015f8373ffffffffffffffffffffffffffffffffffffffff1673ffffffffffffffffffffffffffffffffffffffff1681526020019081526020015f205f9054906101000a900460ff16905092915050565b5f33905090565b5f81519050919050565b7f4e487b71000000000000000000000000000000000000000000000000000000005f52604160045260245ffd5b7f4e487b71000000000000000000000000000000000000000000000000000000005f52602260045260245ffd5b5f60028204905060018216806102a357607f821691505b6020821081036102b6576102b561025f565b5b50919050565b5f819050815f5260205f209050919050565b5f6020601f8301049050919050565b5f82821b905092915050565b5f600883026103187fffffffffffffffffffffffffffffffffffffffffffffffffffffffffffffffff826102dd565b61032286836102dd565b95508019841693508086168417925050509392505050565b5f819050919050565b5f819050919050565b5f61036661036161035c8461033a565b610343565b61033a565b9050919050565b5f819050919050565b61037f8361034c565b61039361038b8261036d565b8484546102e9565b825550505050565b5f5f905090565b6103aa61039b565b6103b5818484610376565b505050565b5b818110156103d8576103cd5f826103a2565b6001810190506103bb565b5050565b601f82111561041d576103ee816102bc565b6103f7846102ce565b81016020851015610406578190505b61041a610412856102ce565b8301826103ba565b50505b505050565b5f82821c905092915050565b5f61043d5f1984600802610422565b1980831691505092915050565b5f610455838361042e565b9150826002028217905092915050565b61046e82610228565b67ffffffffffffffff81111561048757610486610232565b5b610491825461028c565b61049c8282856103dc565b5f60209050601f8311600181146104cd575f84156104bb578287015190505b6104c5858261044a565b86555061052c565b601f1984166104db866102bc565b5f5b82811015610502578489015182556001820191506020850194506020810190506104dd565b8683101561051f578489015161051b601f89168261042e565b8355505b6001600288020188555050505b505050505050565b6080516159b361054c5f395f611b2601526159b35ff3fe6080604052600436106101f7575f3560e01c806379ee5e331161010c578063d16172d41161009f578063e13102e91161006e578063e13102e9146107a4578063e212e7fb146107cc578063e985e9c514610808578063e9dbebce14610844578063f242432a14610886576101f7565b8063d16172d4146106ee578063d547741f14610718578063d656e3b814610740578063dfc90cf21461077c576101f7565b80639bc2bc71116100db5780639bc2bc7114610636578063a217fddf14610672578063a22cb4651461069c578063a966a0df146106c4576101f7565b806379ee5e331461057e5780637b498b05146105a8578063853a65f9146105d057806391d14854146105fa576101f7565b8063248a9ca31161018f578063365f62811161015e578063365f62811461047e5780634e1273f4146104c05780635ece3122146104fc5780636d1884e01461051857806375b238fc14610554576101f7565b8063248a9ca3146103ca5780632eb2c2d6146104065780632f2ff15d1461042e57806336568abe14610456576101f7565b8063113f8818116101cb578063113f8818146102ee57806312dcba2d1461032a578063163e0f46146103525780631f79a1e91461038e576101f7565b8062fdd58e146101fb57806301ffc9a7146102375780630b791430146102735780630e89341c146102b2575b5f5ffd5b348015610206575f5ffd5b50610221600480360381019061021c9190613a30565b6108ae565b60405161022e9190613a7d565b60405180910390f35b348015610242575f5ffd5b5061025d60048036038101906102589190613aeb565b610903565b60405161026a9190613b30565b60405180910390f35b34801561027e575f5ffd5b5061029960048036038101906102949190613b49565b610914565b6040516102a99493929190613bf3565b60405180910390f35b3480156102bd575f5ffd5b506102d860048036038101906102d39190613b49565b6109f1565b6040516102e59190613c3d565b60405180910390f35b3480156102f9575f5ffd5b50610314600480360381019061030f9190613c5d565b610a83565b6040516103219190613c3d565b60405180910390f35b348015610335575f5ffd5b50610350600480360381019061034b9190613c9b565b610bc3565b005b34801561035d575f5ffd5b5061037860048036038101906103739190613b49565b610c1c565b6040516103859190613dbd565b60405180910390f35b348015610399575f5ffd5b506103b460048036038101906103af9190613b49565b610e0c565b6040516103c19190613b30565b60405180910390f35b3480156103d5575f5ffd5b506103f060048036038101906103eb9190613e10565b610e29565b6040516103fd9190613e4a565b60405180910390f35b348015610411575f5ffd5b5061042c60048036038101906104279190614053565b610e46565b005b348015610439575f5ffd5b50610454600480360381019061044f919061411e565b610ec8565b005b348015610461575f5ffd5b5061047c6004803603810190610477919061411e565b610eea565b005b348015610489575f5ffd5b506104a4600480360381019061049f9190613c5d565b610f65565b6040516104b7979695949392919061415c565b60405180910390f35b3480156104cb575f5ffd5b506104e660048036038101906104e19190614297565b6110ba565b6040516104f391906143b5565b60405180910390f35b610516600480360381019061051191906143d5565b6111c4565b005b348015610523575f5ffd5b5061053e60048036038101906105399190613b49565b6118d6565b60405161054b9190614529565b60405180910390f35b34801561055f575f5ffd5b50610568611b00565b6040516105759190613e4a565b60405180910390f35b348015610589575f5ffd5b50610592611b24565b60405161059f9190613a7d565b60405180910390f35b3480156105b3575f5ffd5b506105ce60048036038101906105c99190613c9b565b611b48565b005b3480156105db575f5ffd5b506105e4611ba1565b6040516105f19190614549565b60405180910390f35b348015610605575f5ffd5b50610620600480360381019061061b919061411e565b611bc6565b60405161062d9190613b30565b60405180910390f35b348015610641575f5ffd5b5061065c60048036038101906106579190614600565b611c2a565b6040516106699190613a7d565b60405180910390f35b34801561067d575f5ffd5b50610686611e4a565b6040516106939190613e4a565b60405180910390f35b3480156106a7575f5ffd5b506106c260048036038101906106bd9190614671565b611e50565b005b3480156106cf575f5ffd5b506106d8611e66565b6040516106e59190613e4a565b60405180910390f35b3480156106f9575f5ffd5b50610702611e8a565b60405161070f9190613a7d565b60405180910390f35b348015610723575f5ffd5b5061073e6004803603810190610739919061411e565b611e90565b005b34801561074b575f5ffd5b5061076660048036038101906107619190613a30565b611eb2565b6040516107739190613b30565b60405180910390f35b348015610787575f5ffd5b506107a2600480360381019061079d9190613c9b565b611edc565b005b3480156107af575f5ffd5b506107ca60048036038101906107c59190613b49565b611ffb565b005b3480156107d7575f5ffd5b506107f260048036038101906107ed91906146af565b6121b7565b6040516107ff9190613a7d565b60405180910390f35b348015610813575f5ffd5b5061082e6004803603810190610829919061475e565b61251a565b60405161083b9190613b30565b60405180910390f35b34801561084f575f5ffd5b5061086a60048036038101906108659190613b49565b6125a8565b60405161087d979695949392919061415c565b60405180910390f35b348015610891575f5ffd5b506108ac60048036038101906108a7919061479c565b6126f2565b005b5f5f5f8381526020019081526020015f205f8473ffffffffffffffffffffffffffffffffffffffff1673ffffffffffffffffffffffffffffffffffffffff1681526020019081526020015f2054905092915050565b5f61090d82612774565b9050919050565b6009602052805f5260405f205f91509050805f015490806001015f9054906101000a900473ffffffffffffffffffffffffffffffffffffffff169080600201805461095e9061485c565b80601f016020809104026020016040519081016040528092919081815260200182805461098a9061485c565b80156109d55780601f106109ac576101008083540402835291602001916109d5565b820191905f5260205f20905b8154815290600101906020018083116109b857829003601f168201915b505050505090806004015f9054906101000a900460ff16905084565b606060028054610a009061485c565b80601f0160208091040260200160405190810160405280929190818152602001828054610a2c9061485c565b8015610a775780601f10610a4e57610100808354040283529160200191610a77565b820191905f5260205f20905b815481529060010190602001808311610a5a57829003601f168201915b50505050509050919050565b60605f73ffffffffffffffffffffffffffffffffffffffff1660095f8581526020019081526020015f206001015f9054906101000a900473ffffffffffffffffffffffffffffffffffffffff1673ffffffffffffffffffffffffffffffffffffffff1603610b26576040517f08c379a0000000000000000000000000000000000000000000000000000000008152600401610b1d906148d6565b60405180910390fd5b60095f8481526020019081526020015f20600301805490508210610b7f576040517f08c379a0000000000000000000000000000000000000000000000000000000008152600401610b7690614964565b60405180910390fd5b5f60095f8581526020019081526020015f206003018381548110610ba657610ba5614982565b5b905f5260205f2001549050610bba816109f1565b91505092915050565b7fa49807205ce4d355092ef5a8a18f56e8913cf4a201fbe287825b095693c21775610bed816127ed565b610c177f877a78dc988c0ec5f58453b44888a55eb39755c3d5ed8d8ea990912aa3ef29c683612801565b505050565b610c246138b0565b81600a5f8481526020019081526020015f205f0154148015610c5957505f600a5f8481526020019081526020015f2060040154115b610c98576040517f08c379a0000000000000000000000000000000000000000000000000000000008152600401610c8f90614a1f565b60405180910390fd5b600a5f8381526020019081526020015f206040518060e00160405290815f820154815260200160018201548152602001600282018054610cd79061485c565b80601f0160208091040260200160405190810160405280929190818152602001828054610d039061485c565b8015610d4e5780601f10610d2557610100808354040283529160200191610d4e565b820191905f5260205f20905b815481529060010190602001808311610d3157829003601f168201915b50505050508152602001600382015481526020016004820154815260200160058201548152602001600682018054610d859061485c565b80601f0160208091040260200160405190810160405280929190818152602001828054610db19061485c565b8015610dfc5780601f10610dd357610100808354040283529160200191610dfc565b820191905f5260205f20905b815481529060010190602001808311610ddf57829003601f168201915b5050505050815250509050919050565b6004602052805f5260405f205f915054906101000a900460ff1681565b5f60035f8381526020019081526020015f20600101549050919050565b5f73ffffffffffffffffffffffffffffffffffffffff168573ffffffffffffffffffffffffffffffffffffffff1614610eb4576040517f08c379a0000000000000000000000000000000000000000000000000000000008152600401610eab90614a87565b60405180910390fd5b610ec185858585856128eb565b5050505050565b610ed182610e29565b610eda816127ed565b610ee48383612801565b50505050565b610ef2612992565b73ffffffffffffffffffffffffffffffffffffffff168173ffffffffffffffffffffffffffffffffffffffff1614610f56576040517f6697b23200000000000000000000000000000000000000000000000000000000815260040160405180910390fd5b610f608282612999565b505050565b600b602052815f5260405f20602052805f5260405f205f9150915050805f015490806001015490806002018054610f9b9061485c565b80601f0160208091040260200160405190810160405280929190818152602001828054610fc79061485c565b80156110125780601f10610fe957610100808354040283529160200191611012565b820191905f5260205f20905b815481529060010190602001808311610ff557829003601f168201915b5050505050908060030154908060040154908060050154908060060180546110399061485c565b80601f01602080910402602001604051908101604052809291908181526020018280546110659061485c565b80156110b05780601f10611087576101008083540402835291602001916110b0565b820191905f5260205f20905b81548152906001019060200180831161109357829003601f168201915b5050505050905087565b6060815183511461110657815183516040517f5b0599910000000000000000000000000000000000000000000000000000000081526004016110fd929190614aa5565b60405180910390fd5b5f835167ffffffffffffffff81111561112257611121613e67565b5b6040519080825280602002602001820160405280156111505781602001602082028036833780820191505090505b5090505f5f90505b84518110156111b95761118f6111778287612a8390919063ffffffff16565b61118a8387612a9690919063ffffffff16565b6108ae565b8282815181106111a2576111a1614982565b5b602002602001018181525050806001019050611158565b508091505092915050565b5f60095f8581526020019081526020015f2090505f73ffffffffffffffffffffffffffffffffffffffff16816001015f9054906101000a900473ffffffffffffffffffffffffffffffffffffffff1673ffffffffffffffffffffffffffffffffffffffff1603611269576040517f08c379a0000000000000000000000000000000000000000000000000000000008152600401611260906148d6565b60405180910390fd5b806004015f9054906101000a900460ff166112b9576040517f08c379a00000000000000000000000000000000000000000000000000000000081526004016112b090614b16565b60405180910390fd5b80600301805490508310611302576040517f08c379a00000000000000000000000000000000000000000000000000000000081526004016112f990614964565b60405180910390fd5b5f81600301848154811061131957611318614982565b5b905f5260205f200154905080600a5f8381526020019081526020015f205f015414611379576040517f08c379a000000000000000000000000000000000000000000000000000000000815260040161137090614b7e565b60405180910390fd5b5f600a5f8381526020019081526020015f209050858160010154146113d3576040517f08c379a00000000000000000000000000000000000000000000000000000000081526004016113ca90614c0c565b60405180910390fd5b80600401548482600501546113e89190614c57565b1115611429576040517f08c379a000000000000000000000000000000000000000000000000000000000815260040161142090614cd4565b60405180910390fd5b6001841461146c576040517f08c379a000000000000000000000000000000000000000000000000000000000815260040161146390614d62565b60405180910390fd5b60085f3373ffffffffffffffffffffffffffffffffffffffff1673ffffffffffffffffffffffffffffffffffffffff1681526020019081526020015f205f8781526020019081526020015f205f9054906101000a900460ff1615611505576040517f08c379a00000000000000000000000000000000000000000000000000000000081526004016114fc90614df0565b60405180910390fd5b5f8160030154905080341015611550576040517f08c379a000000000000000000000000000000000000000000000000000000000815260040161154790614e58565b60405180910390fd5b600160085f3373ffffffffffffffffffffffffffffffffffffffff1673ffffffffffffffffffffffffffffffffffffffff1681526020019081526020015f205f8981526020019081526020015f205f6101000a81548160ff0219169083151502179055505f6127106103e8836115c69190614e76565b6115d09190614ee4565b90505f81836115df9190614f14565b905086846005015f8282546115f49190614c57565b9250508190555061161533868960405180602001604052805f815250612aa9565b5f8211156116e8575f60055f9054906101000a900473ffffffffffffffffffffffffffffffffffffffff1673ffffffffffffffffffffffffffffffffffffffff168360405161166390614f74565b5f6040518083038185875af1925050503d805f811461169d576040519150601f19603f3d011682016040523d82523d5f602084013e6116a2565b606091505b50509050806116e6576040517f08c379a00000000000000000000000000000000000000000000000000000000081526004016116dd90614fd2565b60405180910390fd5b505b5f8111156117bd575f866001015f9054906101000a900473ffffffffffffffffffffffffffffffffffffffff1673ffffffffffffffffffffffffffffffffffffffff168260405161173890614f74565b5f6040518083038185875af1925050503d805f8114611772576040519150601f19603f3d011682016040523d82523d5f602084013e611777565b606091505b50509050806117bb576040517f08c379a00000000000000000000000000000000000000000000000000000000081526004016117b290615060565b60405180910390fd5b505b8234111561187a575f3373ffffffffffffffffffffffffffffffffffffffff1684346117e99190614f14565b6040516117f590614f74565b5f6040518083038185875af1925050503d805f811461182f576040519150601f19603f3d011682016040523d82523d5f602084013e611834565b606091505b5050905080611878576040517f08c379a000000000000000000000000000000000000000000000000000000000815260040161186f906150c8565b60405180910390fd5b505b3373ffffffffffffffffffffffffffffffffffffffff16857fef266bb11bf4b58aa8562ab8c8746e3b84a521780a2c57ca09d87bae13f5eb0989866040516118c3929190614aa5565b60405180910390a3505050505050505050565b6118de6138e8565b5f73ffffffffffffffffffffffffffffffffffffffff1660095f8481526020019081526020015f206001015f9054906101000a900473ffffffffffffffffffffffffffffffffffffffff1673ffffffffffffffffffffffffffffffffffffffff160361197f576040517f08c379a000000000000000000000000000000000000000000000000000000000815260040161197690615130565b60405180910390fd5b60095f8381526020019081526020015f206040518060a00160405290815f8201548152602001600182015f9054906101000a900473ffffffffffffffffffffffffffffffffffffffff1673ffffffffffffffffffffffffffffffffffffffff1673ffffffffffffffffffffffffffffffffffffffff168152602001600282018054611a099061485c565b80601f0160208091040260200160405190810160405280929190818152602001828054611a359061485c565b8015611a805780601f10611a5757610100808354040283529160200191611a80565b820191905f5260205f20905b815481529060010190602001808311611a6357829003601f168201915b5050505050815260200160038201805480602002602001604051908101604052809291908181526020018280548015611ad657602002820191905f5260205f20905b815481526020019060010190808311611ac2575b50505050508152602001600482015f9054906101000a900460ff1615151515815250509050919050565b7fa49807205ce4d355092ef5a8a18f56e8913cf4a201fbe287825b095693c2177581565b7f000000000000000000000000000000000000000000000000000000000000000081565b7fa49807205ce4d355092ef5a8a18f56e8913cf4a201fbe287825b095693c21775611b72816127ed565b611b9c7f877a78dc988c0ec5f58453b44888a55eb39755c3d5ed8d8ea990912aa3ef29c683612999565b505050565b60055f9054906101000a900473ffffffffffffffffffffffffffffffffffffffff1681565b5f60035f8481526020019081526020015f205f015f8373ffffffffffffffffffffffffffffffffffffffff1673ffffffffffffffffffffffffffffffffffffffff1681526020019081526020015f205f9054906101000a900460ff16905092915050565b5f7f877a78dc988c0ec5f58453b44888a55eb39755c3d5ed8d8ea990912aa3ef29c6611c55816127ed565b5f835111611c98576040517f08c379a0000000000000000000000000000000000000000000000000000000008152600401611c8f90615198565b60405180910390fd5b5f600654905060065f815480929190611cb0906151b6565b91905055506040518060a001604052808281526020013373ffffffffffffffffffffffffffffffffffffffff1681526020018581526020015f67ffffffffffffffff811115611d0257611d01613e67565b5b604051908082528060200260200182016040528015611d305781602001602082028036833780820191505090505b5081526020016001151581525060095f8381526020019081526020015f205f820151815f01556020820151816001015f6101000a81548173ffffffffffffffffffffffffffffffffffffffff021916908373ffffffffffffffffffffffffffffffffffffffff1602179055506040820151816002019081611db1919061539d565b506060820151816003019080519060200190611dce92919061392c565b506080820151816004015f6101000a81548160ff0219169083151502179055509050503373ffffffffffffffffffffffffffffffffffffffff16817ffc695dea2478fb938a11068aeedddd7046a5fe655f136e30a325d353fe187a4586604051611e389190613c3d565b60405180910390a38092505050919050565b5f5f1b81565b611e62611e5b612992565b8383612b3e565b5050565b7f877a78dc988c0ec5f58453b44888a55eb39755c3d5ed8d8ea990912aa3ef29c681565b6103e881565b611e9982610e29565b611ea2816127ed565b611eac8383612999565b50505050565b6008602052815f5260405f20602052805f5260405f205f915091509054906101000a900460ff1681565b7fa49807205ce4d355092ef5a8a18f56e8913cf4a201fbe287825b095693c21775611f06816127ed565b5f73ffffffffffffffffffffffffffffffffffffffff168273ffffffffffffffffffffffffffffffffffffffff1603611f74576040517f08c379a0000000000000000000000000000000000000000000000000000000008152600401611f6b906154dc565b60405180910390fd5b8160055f6101000a81548173ffffffffffffffffffffffffffffffffffffffff021916908373ffffffffffffffffffffffffffffffffffffffff1602179055508173ffffffffffffffffffffffffffffffffffffffff167ff0ba5c44fdfedea000ca370fa65a9cd4be8189b198d8ea6e47a67f2d9ec31a7760405160405180910390a25050565b7f877a78dc988c0ec5f58453b44888a55eb39755c3d5ed8d8ea990912aa3ef29c6612025816127ed565b3373ffffffffffffffffffffffffffffffffffffffff1660095f8481526020019081526020015f206001015f9054906101000a900473ffffffffffffffffffffffffffffffffffffffff1673ffffffffffffffffffffffffffffffffffffffff16146120c6576040517f08c379a00000000000000000000000000000000000000000000000000000000081526004016120bd90615544565b60405180910390fd5b5f73ffffffffffffffffffffffffffffffffffffffff1660095f8481526020019081526020015f206001015f9054906101000a900473ffffffffffffffffffffffffffffffffffffffff1673ffffffffffffffffffffffffffffffffffffffff1603612167576040517f08c379a000000000000000000000000000000000000000000000000000000000815260040161215e90615130565b60405180910390fd5b60095f8381526020019081526020015f206004015f9054906101000a900460ff161560095f8481526020019081526020015f206004015f6101000a81548160ff0219169083151502179055505050565b5f7f877a78dc988c0ec5f58453b44888a55eb39755c3d5ed8d8ea990912aa3ef29c66121e2816127ed565b5f60095f8981526020019081526020015f2090503373ffffffffffffffffffffffffffffffffffffffff16816001015f9054906101000a900473ffffffffffffffffffffffffffffffffffffffff1673ffffffffffffffffffffffffffffffffffffffff1614612287576040517f08c379a000000000000000000000000000000000000000000000000000000000815260040161227e90615544565b60405180910390fd5b806004015f9054906101000a900460ff166122d7576040517f08c379a00000000000000000000000000000000000000000000000000000000081526004016122ce90614b16565b60405180910390fd5b5f8511612319576040517f08c379a0000000000000000000000000000000000000000000000000000000008152600401612310906155ac565b60405180910390fd5b5f84511161235c576040517f08c379a000000000000000000000000000000000000000000000000000000000815260040161235390615614565b60405180910390fd5b5f60075f81548092919061236f906151b6565b9190505590506040518060e001604052808281526020018a81526020018981526020018881526020018781526020015f815260200186815250600a5f8381526020019081526020015f205f820151815f01556020820151816001015560408201518160020190816123e0919061539d565b50606082015181600301556080820151816004015560a0820151816005015560c0820151816006019081612414919061539d565b50905050600a5f8281526020019081526020015f20600b5f8b81526020019081526020015f205f8381526020019081526020015f205f820154815f0155600182015481600101556002820181600201908161246f9190615647565b50600382015481600301556004820154816004015560058201548160050155600682018160060190816124a29190615647565b509050508160030181908060018154018082558091505060019003905f5260205f20015f909190919091505588817fabf330a08fa3934846cf859dcbe8bccd2c598df64758145917e967b88e80b11b8a8a8a6040516125039392919061572c565b60405180910390a380935050505095945050505050565b5f60015f8473ffffffffffffffffffffffffffffffffffffffff1673ffffffffffffffffffffffffffffffffffffffff1681526020019081526020015f205f8373ffffffffffffffffffffffffffffffffffffffff1673ffffffffffffffffffffffffffffffffffffffff1681526020019081526020015f205f9054906101000a900460ff16905092915050565b600a602052805f5260405f205f91509050805f0154908060010154908060020180546125d39061485c565b80601f01602080910402602001604051908101604052809291908181526020018280546125ff9061485c565b801561264a5780601f106126215761010080835404028352916020019161264a565b820191905f5260205f20905b81548152906001019060200180831161262d57829003601f168201915b5050505050908060030154908060040154908060050154908060060180546126719061485c565b80601f016020809104026020016040519081016040528092919081815260200182805461269d9061485c565b80156126e85780601f106126bf576101008083540402835291602001916126e8565b820191905f5260205f20905b8154815290600101906020018083116126cb57829003601f168201915b5050505050905087565b5f73ffffffffffffffffffffffffffffffffffffffff168573ffffffffffffffffffffffffffffffffffffffff1614612760576040517f08c379a000000000000000000000000000000000000000000000000000000000815260040161275790614a87565b60405180910390fd5b61276d8585858585612ca7565b5050505050565b5f7f7965db0b000000000000000000000000000000000000000000000000000000007bffffffffffffffffffffffffffffffffffffffffffffffffffffffff1916827bffffffffffffffffffffffffffffffffffffffffffffffffffffffff191614806127e657506127e582612d4e565b5b9050919050565b6127fe816127f9612992565b612e2f565b50565b5f61280c8383611bc6565b6128e157600160035f8581526020019081526020015f205f015f8473ffffffffffffffffffffffffffffffffffffffff1673ffffffffffffffffffffffffffffffffffffffff1681526020019081526020015f205f6101000a81548160ff02191690831515021790555061287e612992565b73ffffffffffffffffffffffffffffffffffffffff168273ffffffffffffffffffffffffffffffffffffffff16847f2f8788117e7eff1d82e926ec794901d17c78024a50270940304540a733656f0d60405160405180910390a4600190506128e5565b5f90505b92915050565b5f6128f4612992565b90508073ffffffffffffffffffffffffffffffffffffffff168673ffffffffffffffffffffffffffffffffffffffff16141580156129395750612937868261251a565b155b1561297d5780866040517fe237d922000000000000000000000000000000000000000000000000000000008152600401612974929190615768565b60405180910390fd5b61298a8686868686612e80565b505050505050565b5f33905090565b5f6129a48383611bc6565b15612a79575f60035f8581526020019081526020015f205f015f8473ffffffffffffffffffffffffffffffffffffffff1673ffffffffffffffffffffffffffffffffffffffff1681526020019081526020015f205f6101000a81548160ff021916908315150217905550612a16612992565b73ffffffffffffffffffffffffffffffffffffffff168273ffffffffffffffffffffffffffffffffffffffff16847ff6391f5c32d9c69d2a47ea670b442974b53935d1edc7fd64eb21e047a839171b60405160405180910390a460019050612a7d565b5f90505b92915050565b5f60208202602084010151905092915050565b5f60208202602084010151905092915050565b5f73ffffffffffffffffffffffffffffffffffffffff168473ffffffffffffffffffffffffffffffffffffffff1603612b19575f6040517f57f447ce000000000000000000000000000000000000000000000000000000008152600401612b109190614549565b60405180910390fd5b5f5f612b258585612f74565b91509150612b365f87848487612fa4565b505050505050565b5f73ffffffffffffffffffffffffffffffffffffffff168273ffffffffffffffffffffffffffffffffffffffff1603612bae575f6040517fced3e100000000000000000000000000000000000000000000000000000000008152600401612ba59190614549565b60405180910390fd5b8060015f8573ffffffffffffffffffffffffffffffffffffffff1673ffffffffffffffffffffffffffffffffffffffff1681526020019081526020015f205f8473ffffffffffffffffffffffffffffffffffffffff1673ffffffffffffffffffffffffffffffffffffffff1681526020019081526020015f205f6101000a81548160ff0219169083151502179055508173ffffffffffffffffffffffffffffffffffffffff168373ffffffffffffffffffffffffffffffffffffffff167f17307eab39ab6107e8899845ad3d59bd9653f200f220920489ca2b5937696c3183604051612c9a9190613b30565b60405180910390a3505050565b5f612cb0612992565b90508073ffffffffffffffffffffffffffffffffffffffff168673ffffffffffffffffffffffffffffffffffffffff1614158015612cf55750612cf3868261251a565b155b15612d395780866040517fe237d922000000000000000000000000000000000000000000000000000000008152600401612d30929190615768565b60405180910390fd5b612d468686868686613050565b505050505050565b5f7fd9b67a26000000000000000000000000000000000000000000000000000000007bffffffffffffffffffffffffffffffffffffffffffffffffffffffff1916827bffffffffffffffffffffffffffffffffffffffffffffffffffffffff19161480612e1857507f0e89341c000000000000000000000000000000000000000000000000000000007bffffffffffffffffffffffffffffffffffffffffffffffffffffffff1916827bffffffffffffffffffffffffffffffffffffffffffffffffffffffff1916145b80612e285750612e2782613156565b5b9050919050565b612e398282611bc6565b612e7c5780826040517fe2517d3f000000000000000000000000000000000000000000000000000000008152600401612e7392919061578f565b60405180910390fd5b5050565b5f73ffffffffffffffffffffffffffffffffffffffff168473ffffffffffffffffffffffffffffffffffffffff1603612ef0575f6040517f57f447ce000000000000000000000000000000000000000000000000000000008152600401612ee79190614549565b60405180910390fd5b5f73ffffffffffffffffffffffffffffffffffffffff168573ffffffffffffffffffffffffffffffffffffffff1603612f60575f6040517f01a83514000000000000000000000000000000000000000000000000000000008152600401612f579190614549565b60405180910390fd5b612f6d8585858585612fa4565b5050505050565b60608060405191506001825283602083015260408201905060018152826020820152604081016040529250929050565b612fb0858585856131bf565b5f73ffffffffffffffffffffffffffffffffffffffff168473ffffffffffffffffffffffffffffffffffffffff1614613049575f612fec612992565b90506001845103613038575f61300b5f86612a9690919063ffffffff16565b90505f6130215f86612a9690919063ffffffff16565b9050613031838989858589613552565b5050613047565b613046818787878787613701565b5b505b5050505050565b5f73ffffffffffffffffffffffffffffffffffffffff168473ffffffffffffffffffffffffffffffffffffffff16036130c0575f6040517f57f447ce0000000000000000000000000000000000000000000000000000000081526004016130b79190614549565b60405180910390fd5b5f73ffffffffffffffffffffffffffffffffffffffff168573ffffffffffffffffffffffffffffffffffffffff1603613130575f6040517f01a835140000000000000000000000000000000000000000000000000000000081526004016131279190614549565b60405180910390fd5b5f5f61313c8585612f74565b9150915061314d8787848487612fa4565b50505050505050565b5f7f01ffc9a7000000000000000000000000000000000000000000000000000000007bffffffffffffffffffffffffffffffffffffffffffffffffffffffff1916827bffffffffffffffffffffffffffffffffffffffffffffffffffffffff1916149050919050565b805182511461320957815181516040517f5b059991000000000000000000000000000000000000000000000000000000008152600401613200929190614aa5565b60405180910390fd5b5f613212612992565b90505f5f90505b8351811015613411575f6132368286612a9690919063ffffffff16565b90505f61324c8386612a9690919063ffffffff16565b90505f73ffffffffffffffffffffffffffffffffffffffff168873ffffffffffffffffffffffffffffffffffffffff161461336f575f5f5f8481526020019081526020015f205f8a73ffffffffffffffffffffffffffffffffffffffff1673ffffffffffffffffffffffffffffffffffffffff1681526020019081526020015f205490508181101561331b57888183856040517f03dee4c500000000000000000000000000000000000000000000000000000000815260040161331294939291906157b6565b60405180910390fd5b8181035f5f8581526020019081526020015f205f8b73ffffffffffffffffffffffffffffffffffffffff1673ffffffffffffffffffffffffffffffffffffffff1681526020019081526020015f2081905550505b5f73ffffffffffffffffffffffffffffffffffffffff168773ffffffffffffffffffffffffffffffffffffffff161461340457805f5f8481526020019081526020015f205f8973ffffffffffffffffffffffffffffffffffffffff1673ffffffffffffffffffffffffffffffffffffffff1681526020019081526020015f205f8282546133fc9190614c57565b925050819055505b5050806001019050613219565b5060018351036134cc575f61342f5f85612a9690919063ffffffff16565b90505f6134455f85612a9690919063ffffffff16565b90508573ffffffffffffffffffffffffffffffffffffffff168773ffffffffffffffffffffffffffffffffffffffff168473ffffffffffffffffffffffffffffffffffffffff167fc3d58168c5ae7397731d063d5bbf3d657854427343f4c083240f7aacaa2d0f6285856040516134bd929190614aa5565b60405180910390a4505061354b565b8373ffffffffffffffffffffffffffffffffffffffff168573ffffffffffffffffffffffffffffffffffffffff168273ffffffffffffffffffffffffffffffffffffffff167f4a39dc06d4c0dbc64b70af90fd698a233a518aa5d07e595d983b8c0526c8f7fb86866040516135429291906157f9565b60405180910390a45b5050505050565b5f8473ffffffffffffffffffffffffffffffffffffffff163b11156136f9578373ffffffffffffffffffffffffffffffffffffffff1663f23a6e6187878686866040518663ffffffff1660e01b81526004016135b2959493929190615880565b6020604051808303815f875af19250505080156135ed57506040513d601f19601f820116820180604052508101906135ea91906158ec565b60015b61366e573d805f811461361b576040519150601f19603f3d011682016040523d82523d5f602084013e613620565b606091505b505f81510361366657846040517f57f447ce00000000000000000000000000000000000000000000000000000000815260040161365d9190614549565b60405180910390fd5b805181602001fd5b63f23a6e6160e01b7bffffffffffffffffffffffffffffffffffffffffffffffffffffffff1916817bffffffffffffffffffffffffffffffffffffffffffffffffffffffff1916146136f757846040517f57f447ce0000000000000000000000000000000000000000000000000000000081526004016136ee9190614549565b60405180910390fd5b505b505050505050565b5f8473ffffffffffffffffffffffffffffffffffffffff163b11156138a8578373ffffffffffffffffffffffffffffffffffffffff1663bc197c8187878686866040518663ffffffff1660e01b8152600401613761959493929190615917565b6020604051808303815f875af192505050801561379c57506040513d601f19601f8201168201806040525081019061379991906158ec565b60015b61381d573d805f81146137ca576040519150601f19603f3d011682016040523d82523d5f602084013e6137cf565b606091505b505f81510361381557846040517f57f447ce00000000000000000000000000000000000000000000000000000000815260040161380c9190614549565b60405180910390fd5b805181602001fd5b63bc197c8160e01b7bffffffffffffffffffffffffffffffffffffffffffffffffffffffff1916817bffffffffffffffffffffffffffffffffffffffffffffffffffffffff1916146138a657846040517f57f447ce00000000000000000000000000000000000000000000000000000000815260040161389d9190614549565b60405180910390fd5b505b505050505050565b6040518060e001604052805f81526020015f8152602001606081526020015f81526020015f81526020015f8152602001606081525090565b6040518060a001604052805f81526020015f73ffffffffffffffffffffffffffffffffffffffff16815260200160608152602001606081526020015f151581525090565b828054828255905f5260205f20908101928215613966579160200282015b8281111561396557825182559160200191906001019061394a565b5b5090506139739190613977565b5090565b5b8082111561398e575f815f905550600101613978565b5090565b5f604051905090565b5f5ffd5b5f5ffd5b5f73ffffffffffffffffffffffffffffffffffffffff82169050919050565b5f6139cc826139a3565b9050919050565b6139dc816139c2565b81146139e6575f5ffd5b50565b5f813590506139f7816139d3565b92915050565b5f819050919050565b613a0f816139fd565b8114613a19575f5ffd5b50565b5f81359050613a2a81613a06565b92915050565b5f5f60408385031215613a4657613a4561399b565b5b5f613a53858286016139e9565b9250506020613a6485828601613a1c565b9150509250929050565b613a77816139fd565b82525050565b5f602082019050613a905f830184613a6e565b92915050565b5f7fffffffff0000000000000000000000000000000000000000000000000000000082169050919050565b613aca81613a96565b8114613ad4575f5ffd5b50565b5f81359050613ae581613ac1565b92915050565b5f60208284031215613b0057613aff61399b565b5b5f613b0d84828501613ad7565b91505092915050565b5f8115159050919050565b613b2a81613b16565b82525050565b5f602082019050613b435f830184613b21565b92915050565b5f60208284031215613b5e57613b5d61399b565b5b5f613b6b84828501613a1c565b91505092915050565b613b7d816139c2565b82525050565b5f81519050919050565b5f82825260208201905092915050565b8281835e5f83830152505050565b5f601f19601f8301169050919050565b5f613bc582613b83565b613bcf8185613b8d565b9350613bdf818560208601613b9d565b613be881613bab565b840191505092915050565b5f608082019050613c065f830187613a6e565b613c136020830186613b74565b8181036040830152613c258185613bbb565b9050613c346060830184613b21565b95945050505050565b5f6020820190508181035f830152613c558184613bbb565b905092915050565b5f5f60408385031215613c7357613c7261399b565b5b5f613c8085828601613a1c565b9250506020613c9185828601613a1c565b9150509250929050565b5f60208284031215613cb057613caf61399b565b5b5f613cbd848285016139e9565b91505092915050565b613ccf816139fd565b82525050565b5f82825260208201905092915050565b5f613cef82613b83565b613cf98185613cd5565b9350613d09818560208601613b9d565b613d1281613bab565b840191505092915050565b5f60e083015f830151613d325f860182613cc6565b506020830151613d456020860182613cc6565b5060408301518482036040860152613d5d8282613ce5565b9150506060830151613d726060860182613cc6565b506080830151613d856080860182613cc6565b5060a0830151613d9860a0860182613cc6565b5060c083015184820360c0860152613db08282613ce5565b9150508091505092915050565b5f6020820190508181035f830152613dd58184613d1d565b905092915050565b5f819050919050565b613def81613ddd565b8114613df9575f5ffd5b50565b5f81359050613e0a81613de6565b92915050565b5f60208284031215613e2557613e2461399b565b5b5f613e3284828501613dfc565b91505092915050565b613e4481613ddd565b82525050565b5f602082019050613e5d5f830184613e3b565b92915050565b5f5ffd5b7f4e487b71000000000000000000000000000000000000000000000000000000005f52604160045260245ffd5b613e9d82613bab565b810181811067ffffffffffffffff82111715613ebc57613ebb613e67565b5b80604052505050565b5f613ece613992565b9050613eda8282613e94565b919050565b5f67ffffffffffffffff821115613ef957613ef8613e67565b5b602082029050602081019050919050565b5f5ffd5b5f613f20613f1b84613edf565b613ec5565b90508083825260208201905060208402830185811115613f4357613f42613f0a565b5b835b81811015613f6c5780613f588882613a1c565b845260208401935050602081019050613f45565b5050509392505050565b5f82601f830112613f8a57613f89613e63565b5b8135613f9a848260208601613f0e565b91505092915050565b5f5ffd5b5f67ffffffffffffffff821115613fc157613fc0613e67565b5b613fca82613bab565b9050602081019050919050565b828183375f83830152505050565b5f613ff7613ff284613fa7565b613ec5565b90508281526020810184848401111561401357614012613fa3565b5b61401e848285613fd7565b509392505050565b5f82601f83011261403a57614039613e63565b5b813561404a848260208601613fe5565b91505092915050565b5f5f5f5f5f60a0868803121561406c5761406b61399b565b5b5f614079888289016139e9565b955050602061408a888289016139e9565b945050604086013567ffffffffffffffff8111156140ab576140aa61399f565b5b6140b788828901613f76565b935050606086013567ffffffffffffffff8111156140d8576140d761399f565b5b6140e488828901613f76565b925050608086013567ffffffffffffffff8111156141055761410461399f565b5b61411188828901614026565b9150509295509295909350565b5f5f604083850312156141345761413361399b565b5b5f61414185828601613dfc565b9250506020614152858286016139e9565b9150509250929050565b5f60e08201905061416f5f83018a613a6e565b61417c6020830189613a6e565b818103604083015261418e8188613bbb565b905061419d6060830187613a6e565b6141aa6080830186613a6e565b6141b760a0830185613a6e565b81810360c08301526141c98184613bbb565b905098975050505050505050565b5f67ffffffffffffffff8211156141f1576141f0613e67565b5b602082029050602081019050919050565b5f61421461420f846141d7565b613ec5565b9050808382526020820190506020840283018581111561423757614236613f0a565b5b835b81811015614260578061424c88826139e9565b845260208401935050602081019050614239565b5050509392505050565b5f82601f83011261427e5761427d613e63565b5b813561428e848260208601614202565b91505092915050565b5f5f604083850312156142ad576142ac61399b565b5b5f83013567ffffffffffffffff8111156142ca576142c961399f565b5b6142d68582860161426a565b925050602083013567ffffffffffffffff8111156142f7576142f661399f565b5b61430385828601613f76565b9150509250929050565b5f81519050919050565b5f82825260208201905092915050565b5f819050602082019050919050565b5f6143418383613cc6565b60208301905092915050565b5f602082019050919050565b5f6143638261430d565b61436d8185614317565b935061437883614327565b805f5b838110156143a857815161438f8882614336565b975061439a8361434d565b92505060018101905061437b565b5085935050505092915050565b5f6020820190508181035f8301526143cd8184614359565b905092915050565b5f5f5f606084860312156143ec576143eb61399b565b5b5f6143f986828701613a1c565b935050602061440a86828701613a1c565b925050604061441b86828701613a1c565b9150509250925092565b61442e816139c2565b82525050565b5f82825260208201905092915050565b5f61444e8261430d565b6144588185614434565b935061446383614327565b805f5b8381101561449357815161447a8882614336565b97506144858361434d565b925050600181019050614466565b5085935050505092915050565b6144a981613b16565b82525050565b5f60a083015f8301516144c45f860182613cc6565b5060208301516144d76020860182614425565b50604083015184820360408601526144ef8282613ce5565b915050606083015184820360608601526145098282614444565b915050608083015161451e60808601826144a0565b508091505092915050565b5f6020820190508181035f83015261454181846144af565b905092915050565b5f60208201905061455c5f830184613b74565b92915050565b5f67ffffffffffffffff82111561457c5761457b613e67565b5b61458582613bab565b9050602081019050919050565b5f6145a461459f84614562565b613ec5565b9050828152602081018484840111156145c0576145bf613fa3565b5b6145cb848285613fd7565b509392505050565b5f82601f8301126145e7576145e6613e63565b5b81356145f7848260208601614592565b91505092915050565b5f602082840312156146155761461461399b565b5b5f82013567ffffffffffffffff8111156146325761463161399f565b5b61463e848285016145d3565b91505092915050565b61465081613b16565b811461465a575f5ffd5b50565b5f8135905061466b81614647565b92915050565b5f5f604083850312156146875761468661399b565b5b5f614694858286016139e9565b92505060206146a58582860161465d565b9150509250929050565b5f5f5f5f5f60a086880312156146c8576146c761399b565b5b5f6146d588828901613a1c565b955050602086013567ffffffffffffffff8111156146f6576146f561399f565b5b614702888289016145d3565b945050604061471388828901613a1c565b935050606061472488828901613a1c565b925050608086013567ffffffffffffffff8111156147455761474461399f565b5b614751888289016145d3565b9150509295509295909350565b5f5f604083850312156147745761477361399b565b5b5f614781858286016139e9565b9250506020614792858286016139e9565b9150509250929050565b5f5f5f5f5f60a086880312156147b5576147b461399b565b5b5f6147c2888289016139e9565b95505060206147d3888289016139e9565b94505060406147e488828901613a1c565b93505060606147f588828901613a1c565b925050608086013567ffffffffffffffff8111156148165761481561399f565b5b61482288828901614026565b9150509295509295909350565b7f4e487b71000000000000000000000000000000000000000000000000000000005f52602260045260245ffd5b5f600282049050600182168061487357607f821691505b6020821081036148865761488561482f565b5b50919050565b7f4576656e74206e6f7420666f756e6400000000000000000000000000000000005f82015250565b5f6148c0600f83613b8d565b91506148cb8261488c565b602082019050919050565b5f6020820190508181035f8301526148ed816148b4565b9050919050565b7f496e76616c6964207469636b6574207479706520696e64657820666f722065765f8201527f656e740000000000000000000000000000000000000000000000000000000000602082015250565b5f61494e602383613b8d565b9150614959826148f4565b604082019050919050565b5f6020820190508181035f83015261497b81614942565b9050919050565b7f4e487b71000000000000000000000000000000000000000000000000000000005f52603260045260245ffd5b7f5469636b6574207479706520646f6573206e6f74206578697374206f722069735f8201527f206e6f7420696e697469616c697a656400000000000000000000000000000000602082015250565b5f614a09603083613b8d565b9150614a14826149af565b604082019050919050565b5f6020820190508181035f830152614a36816149fd565b9050919050565b7f5469636b65747320617265206e6f6e2d7472616e7366657261626c65000000005f82015250565b5f614a71601c83613b8d565b9150614a7c82614a3d565b602082019050919050565b5f6020820190508181035f830152614a9e81614a65565b9050919050565b5f604082019050614ab85f830185613a6e565b614ac56020830184613a6e565b9392505050565b7f4576656e74206e6f7420616374697665000000000000000000000000000000005f82015250565b5f614b00601083613b8d565b9150614b0b82614acc565b602082019050919050565b5f6020820190508181035f830152614b2d81614af4565b9050919050565b7f5469636b65742074797065206e6f7420666f756e6400000000000000000000005f82015250565b5f614b68601583613b8d565b9150614b7382614b34565b602082019050919050565b5f6020820190508181035f830152614b9581614b5c565b9050919050565b7f5469636b6574207479706520646f6573206e6f742062656c6f6e6720746f20745f8201527f686973206576656e740000000000000000000000000000000000000000000000602082015250565b5f614bf6602983613b8d565b9150614c0182614b9c565b604082019050919050565b5f6020820190508181035f830152614c2381614bea565b9050919050565b7f4e487b71000000000000000000000000000000000000000000000000000000005f52601160045260245ffd5b5f614c61826139fd565b9150614c6c836139fd565b9250828201905080821115614c8457614c83614c2a565b5b92915050565b7f45786365656473206d617820737570706c7900000000000000000000000000005f82015250565b5f614cbe601283613b8d565b9150614cc982614c8a565b602082019050919050565b5f6020820190508181035f830152614ceb81614cb2565b9050919050565b7f43616e206f6e6c79207075726368617365206f6e65207469636b6574206174205f8201527f612074696d650000000000000000000000000000000000000000000000000000602082015250565b5f614d4c602683613b8d565b9150614d5782614cf2565b604082019050919050565b5f6020820190508181035f830152614d7981614d40565b9050919050565b7f416c7265616479207075726368617365642061207469636b657420666f7220745f8201527f686973206576656e740000000000000000000000000000000000000000000000602082015250565b5f614dda602983613b8d565b9150614de582614d80565b604082019050919050565b5f6020820190508181035f830152614e0781614dce565b9050919050565b7f496e73756666696369656e74207061796d656e740000000000000000000000005f82015250565b5f614e42601483613b8d565b9150614e4d82614e0e565b602082019050919050565b5f6020820190508181035f830152614e6f81614e36565b9050919050565b5f614e80826139fd565b9150614e8b836139fd565b9250828202614e99816139fd565b91508282048414831517614eb057614eaf614c2a565b5b5092915050565b7f4e487b71000000000000000000000000000000000000000000000000000000005f52601260045260245ffd5b5f614eee826139fd565b9150614ef9836139fd565b925082614f0957614f08614eb7565b5b828204905092915050565b5f614f1e826139fd565b9150614f29836139fd565b9250828203905081811115614f4157614f40614c2a565b5b92915050565b5f81905092915050565b50565b5f614f5f5f83614f47565b9150614f6a82614f51565b5f82019050919050565b5f614f7e82614f54565b9150819050919050565b7f506c6174666f726d20666565207472616e73666572206661696c6564000000005f82015250565b5f614fbc601c83613b8d565b9150614fc782614f88565b602082019050919050565b5f6020820190508181035f830152614fe981614fb0565b9050919050565b7f5061796d656e74207472616e7366657220746f20617274697374206661696c655f8201527f6400000000000000000000000000000000000000000000000000000000000000602082015250565b5f61504a602183613b8d565b915061505582614ff0565b604082019050919050565b5f6020820190508181035f8301526150778161503e565b9050919050565b7f526566756e6420746f206275796572206661696c6564000000000000000000005f82015250565b5f6150b2601683613b8d565b91506150bd8261507e565b602082019050919050565b5f6020820190508181035f8301526150df816150a6565b9050919050565b7f4576656e7420646f6573206e6f742065786973740000000000000000000000005f82015250565b5f61511a601483613b8d565b9150615125826150e6565b602082019050919050565b5f6020820190508181035f8301526151478161510e565b9050919050565b7f4576656e74206e616d65207265717569726564000000000000000000000000005f82015250565b5f615182601383613b8d565b915061518d8261514e565b602082019050919050565b5f6020820190508181035f8301526151af81615176565b9050919050565b5f6151c0826139fd565b91507fffffffffffffffffffffffffffffffffffffffffffffffffffffffffffffffff82036151f2576151f1614c2a565b5b600182019050919050565b5f819050815f5260205f209050919050565b5f6020601f8301049050919050565b5f82821b905092915050565b5f600883026152597fffffffffffffffffffffffffffffffffffffffffffffffffffffffffffffffff8261521e565b615263868361521e565b95508019841693508086168417925050509392505050565b5f819050919050565b5f61529e615299615294846139fd565b61527b565b6139fd565b9050919050565b5f819050919050565b6152b783615284565b6152cb6152c3826152a5565b84845461522a565b825550505050565b5f5f905090565b6152e26152d3565b6152ed8184846152ae565b505050565b5b81811015615310576153055f826152da565b6001810190506152f3565b5050565b601f82111561535557615326816151fd565b61532f8461520f565b8101602085101561533e578190505b61535261534a8561520f565b8301826152f2565b50505b505050565b5f82821c905092915050565b5f6153755f198460080261535a565b1980831691505092915050565b5f61538d8383615366565b9150826002028217905092915050565b6153a682613b83565b67ffffffffffffffff8111156153bf576153be613e67565b5b6153c9825461485c565b6153d4828285615314565b5f60209050601f831160018114615405575f84156153f3578287015190505b6153fd8582615382565b865550615464565b601f198416615413866151fd565b5f5b8281101561543a57848901518255600182019150602085019450602081019050615415565b868310156154575784890151615453601f891682615366565b8355505b6001600288020188555050505b505050505050565b7f4e65772066656520636f6c6c6563746f722063616e6e6f74206265207a65726f5f8201527f2061646472657373000000000000000000000000000000000000000000000000602082015250565b5f6154c6602883613b8d565b91506154d18261546c565b604082019050919050565b5f6020820190508181035f8301526154f3816154ba565b9050919050565b7f4e6f74206576656e74206f776e657200000000000000000000000000000000005f82015250565b5f61552e600f83613b8d565b9150615539826154fa565b602082019050919050565b5f6020820190508181035f83015261555b81615522565b9050919050565b7f537570706c79206d757374206265203e203000000000000000000000000000005f82015250565b5f615596601283613b8d565b91506155a182615562565b602082019050919050565b5f6020820190508181035f8301526155c38161558a565b9050919050565b7f49504653206861736820726571756972656400000000000000000000000000005f82015250565b5f6155fe601283613b8d565b9150615609826155ca565b602082019050919050565b5f6020820190508181035f83015261562b816155f2565b9050919050565b5f815490506156408161485c565b9050919050565b81810361565557505061572a565b61565e82615632565b67ffffffffffffffff81111561567757615676613e67565b5b615681825461485c565b61568c828285615314565b5f601f8311600181146156b9575f84156156a7578287015490505b6156b18582615382565b865550615723565b601f1984166156c7876151fd565b96506156d2866151fd565b5f5b828110156156f9578489015482556001820191506001850194506020810190506156d4565b868310156157165784890154615712601f891682615366565b8355505b6001600288020188555050505b5050505050505b565b5f6060820190508181035f8301526157448186613bbb565b90506157536020830185613a6e565b6157606040830184613a6e565b949350505050565b5f60408201905061577b5f830185613b74565b6157886020830184613b74565b9392505050565b5f6040820190506157a25f830185613b74565b6157af6020830184613e3b565b9392505050565b5f6080820190506157c95f830187613b74565b6157d66020830186613a6e565b6157e36040830185613a6e565b6157f06060830184613a6e565b95945050505050565b5f6040820190508181035f8301526158118185614359565b905081810360208301526158258184614359565b90509392505050565b5f81519050919050565b5f82825260208201905092915050565b5f6158528261582e565b61585c8185615838565b935061586c818560208601613b9d565b61587581613bab565b840191505092915050565b5f60a0820190506158935f830188613b74565b6158a06020830187613b74565b6158ad6040830186613a6e565b6158ba6060830185613a6e565b81810360808301526158cc8184615848565b90509695505050505050565b5f815190506158e681613ac1565b92915050565b5f602082840312156159015761590061399b565b5b5f61590e848285016158d8565b91505092915050565b5f60a08201905061592a5f830188613b74565b6159376020830187613b74565b81810360408301526159498186614359565b9050818103606083015261595d8185614359565b905081810360808301526159718184615848565b9050969550505050505056fea26469706673582212208a21d14e7497d23cdb04066c8aeddc74d499cd77fb717ba9c644347f3c83c5df64736f6c634300081e0033","linkReferences":{}},"methodIdentifiers":{"ADMIN_ROLE()":"75b238fc","ARTIST_ROLE()":"a966a0df","DEFAULT_ADMIN_ROLE()":"a217fddf","PLATFORM_FEE_BASIS_POINTS()":"d16172d4","addTicketType(uint256,string,uint256,uint256,string)":"e212e7fb","balanceOf(address,uint256)":"00fdd58e","balanceOfBatch(address[],uint256[])":"4e1273f4","createEvent(string)":"9bc2bc71","eventTicketTypes(uint256,uint256)":"365f6281","events(uint256)":"0b791430","getEvent(uint256)":"6d1884e0","getRoleAdmin(bytes32)":"248a9ca3","getTicketType(uint256)":"163e0f46","getUriForEventTicket(uint256,uint256)":"113f8818","grantArtistRole(address)":"12dcba2d","grantRole(bytes32,address)":"2f2ff15d","hasPurchasedTicket(address,uint256)":"d656e3b8","hasRole(bytes32,address)":"91d14854","isApprovedForAll(address,address)":"e985e9c5","nullifierHashes(uint256)":"1f79a1e9","platformFeeCollector()":"853a65f9","purchaseTicket(uint256,uint256,uint256)":"5ece3122","renounceRole(bytes32,address)":"36568abe","revokeArtistRole(address)":"7b498b05","revokeRole(bytes32,address)":"d547741f","safeBatchTransferFrom(address,address,uint256[],uint256[],bytes)":"2eb2c2d6","safeTransferFrom(address,address,uint256,uint256,bytes)":"f242432a","setApprovalForAll(address,bool)":"a22cb465","setPlatformFeeCollector(address)":"dfc90cf2","supportsInterface(bytes4)":"01ffc9a7","ticketTypes(uint256)":"e9dbebce","toggleEventStatus(uint256)":"e13102e9","uri(uint256)":"0e89341c","worldIdGroupId()":"79ee5e33"},"id":34}